{
  "contractName": "MarketNFT",
  "abi": [
    {
      "inputs": [
        {
          "internalType": "address",
          "name": "_nft",
          "type": "address"
        },
        {
          "internalType": "uint256",
          "name": "_id",
          "type": "uint256"
        }
      ],
      "name": "addNFT",
      "outputs": [
        {
          "internalType": "bool",
          "name": "",
          "type": "bool"
        }
      ],
      "stateMutability": "nonpayable",
      "type": "function"
    },
    {
      "inputs": [
        {
          "internalType": "address",
          "name": "_nft",
          "type": "address"
        },
        {
          "internalType": "uint256",
          "name": "_id",
          "type": "uint256"
        }
      ],
      "name": "buy",
      "outputs": [
        {
          "internalType": "bool",
          "name": "",
          "type": "bool"
        }
      ],
      "stateMutability": "payable",
      "type": "function",
      "payable": true
    }
  ],
  "bytecode": "0x608060405234801561001057600080fd5b50610781806100206000396000f3fe6080604052600436106100295760003560e01c80634ea2813c1461002e578063cce7ec131461006b575b600080fd5b34801561003a57600080fd5b50610055600480360381019061005091906104ff565b61009b565b604051610062919061055a565b60405180910390f35b610085600480360381019061008091906104ff565b6101c2565b604051610092919061055a565b60405180910390f35b6000808390503073ffffffffffffffffffffffffffffffffffffffff168173ffffffffffffffffffffffffffffffffffffffff1663081812fc856040518263ffffffff1660e01b81526004016100f19190610584565b602060405180830381865afa15801561010e573d6000803e3d6000fd5b505050506040513d601f19601f8201168201806040525081019061013291906105b4565b73ffffffffffffffffffffffffffffffffffffffff161461015257600080fd5b6000808573ffffffffffffffffffffffffffffffffffffffff1673ffffffffffffffffffffffffffffffffffffffff168152602001908152602001600020839080600181540180825580915050600190039060005260206000200160009091909190915055600191505092915050565b6000670de0b6b3a7640000341461020e576040517f08c379a00000000000000000000000000000000000000000000000000000000081526004016102059061063e565b60405180910390fd5b6102188383610374565b61022157600080fd5b6000339050600084905060008173ffffffffffffffffffffffffffffffffffffffff16636352211e866040518263ffffffff1660e01b81526004016102669190610584565b602060405180830381865afa158015610283573d6000803e3d6000fd5b505050506040513d601f19601f820116820180604052508101906102a791906105b4565b90508173ffffffffffffffffffffffffffffffffffffffff166342842e0e8285886040518463ffffffff1660e01b81526004016102e69392919061066d565b600060405180830381600087803b15801561030057600080fd5b505af1158015610314573d6000803e3d6000fd5b505050508073ffffffffffffffffffffffffffffffffffffffff166108fc670de0b6b3a76400009081150290604051600060405180830381858888f19350505050158015610366573d6000803e3d6000fd5b506001935050505092915050565b6000806000808573ffffffffffffffffffffffffffffffffffffffff1673ffffffffffffffffffffffffffffffffffffffff1681526020019081526020016000208054806020026020016040519081016040528092919081815260200182805480156103ff57602002820191906000526020600020905b8154815260200190600101908083116103eb575b5050505050905060008151905060005b81811015610458578483828151811061042b5761042a6106a4565b5b602002602001015114156104455760019350505050610460565b808061045090610702565b91505061040f565b506000925050505b92915050565b600080fd5b600073ffffffffffffffffffffffffffffffffffffffff82169050919050565b60006104968261046b565b9050919050565b6104a68161048b565b81146104b157600080fd5b50565b6000813590506104c38161049d565b92915050565b6000819050919050565b6104dc816104c9565b81146104e757600080fd5b50565b6000813590506104f9816104d3565b92915050565b6000806040838503121561051657610515610466565b5b6000610524858286016104b4565b9250506020610535858286016104ea565b9150509250929050565b60008115159050919050565b6105548161053f565b82525050565b600060208201905061056f600083018461054b565b92915050565b61057e816104c9565b82525050565b60006020820190506105996000830184610575565b92915050565b6000815190506105ae8161049d565b92915050565b6000602082840312156105ca576105c9610466565b5b60006105d88482850161059f565b91505092915050565b600082825260208201905092915050565b7f4e465420636f7374732031206574686572000000000000000000000000000000600082015250565b60006106286011836105e1565b9150610633826105f2565b602082019050919050565b600060208201905081810360008301526106578161061b565b9050919050565b6106678161048b565b82525050565b6000606082019050610682600083018661065e565b61068f602083018561065e565b61069c6040830184610575565b949350505050565b7f4e487b7100000000000000000000000000000000000000000000000000000000600052603260045260246000fd5b7f4e487b7100000000000000000000000000000000000000000000000000000000600052601160045260246000fd5b600061070d826104c9565b91507fffffffffffffffffffffffffffffffffffffffffffffffffffffffffffffffff8214156107405761073f6106d3565b5b60018201905091905056fea264697066735822122016f0b00adcd4921f79ec760054f78eb3d6008537d0098fc524846b95efb82ba364736f6c634300080b0033",
  "immutableReferences": {},
  "source": "// SPDX-License-Identifier: MIT\npragma solidity ^0.8.0;\nimport \"../node_modules/@openzeppelin/contracts/token/ERC721/IERC721.sol\";\n\ncontract MarketNFT {\n    mapping(address => uint256[]) private approvedNFTs;\n\n    function _isApproved(address _nft, uint256 _id)\n        private\n        view\n        returns (bool)\n    {\n        uint256[] memory ids = approvedNFTs[_nft];\n        uint256 len = ids.length;\n        for (uint256 i; i < len; i++) {\n            if (ids[i] == _id) return true;\n        }\n        return false;\n    }\n\n    function addNFT(address _nft, uint256 _id) public returns (bool) {\n        IERC721 nft = IERC721(_nft);\n        require(nft.getApproved(_id) == address(this));\n        approvedNFTs[_nft].push(_id);\n        return true;\n    }\n\n    function buy(address _nft, uint256 _id) public payable returns (bool) {\n        require(msg.value == 1 ether, \"NFT costs 1 ether\");\n        require(_isApproved(_nft, _id));\n        address to = msg.sender;\n        IERC721 nft = IERC721(_nft);\n        address owner = nft.ownerOf(_id);\n        nft.safeTransferFrom(owner, to, _id);\n        payable(address(owner)).transfer(1 ether);\n        return true;\n    }\n}\n",
  "sourcePath": "/home/leejun/rea de Trabalho/pessoal/programacao/estudos/Defi/Custom-NFT/web3/contracts/MarketNFT.sol",
  "compiler": {
    "name": "solc",
    "version": "0.8.11+commit.d7f03943.Emscripten.clang"
  },
  "schemaVersion": "3.4.4",
  "updatedAt": "2022-01-21T04:27:09.692Z",
  "networkType": "ethereum",
  "devdoc": {
    "kind": "dev",
    "methods": {},
    "version": 1
  },
  "userdoc": {
    "kind": "user",
    "methods": {},
    "version": 1
  }
}